{
    "contractName": "Vault",
    "abi": [
        {
            "inputs": [
                {
                    "internalType": "contract StableCoinToken",
                    "name": "_token",
                    "type": "address"
                },
                {
                    "internalType": "contract PriceConsumerV3",
                    "name": "_oracle",
                    "type": "address"
                }
            ],
            "stateMutability": "nonpayable",
            "type": "constructor"
        },
        {
            "anonymous": false,
            "inputs": [
                {
                    "indexed": false,
                    "internalType": "uint256",
                    "name": "collateralDeposited",
                    "type": "uint256"
                },
                {
                    "indexed": false,
                    "internalType": "uint256",
                    "name": "amountMinted",
                    "type": "uint256"
                }
            ],
            "name": "Deposit",
            "type": "event"
        },
        {
            "anonymous": false,
            "inputs": [
                {
                    "indexed": true,
                    "internalType": "address",
                    "name": "previousOwner",
                    "type": "address"
                },
                {
                    "indexed": true,
                    "internalType": "address",
                    "name": "newOwner",
                    "type": "address"
                }
            ],
            "name": "OwnershipTransferred",
            "type": "event"
        },
        {
            "anonymous": false,
            "inputs": [
                {
                    "indexed": false,
                    "internalType": "uint256",
                    "name": "collateralWithdrawn",
                    "type": "uint256"
                },
                {
                    "indexed": false,
                    "internalType": "uint256",
                    "name": "amountBurned",
                    "type": "uint256"
                }
            ],
            "name": "Withdraw",
            "type": "event"
        },
        {
            "inputs": [],
            "name": "collaterization_ratio",
            "outputs": [
                {
                    "internalType": "uint256",
                    "name": "",
                    "type": "uint256"
                }
            ],
            "stateMutability": "view",
            "type": "function",
            "constant": true
        },
        {
            "inputs": [],
            "name": "owner",
            "outputs": [
                {
                    "internalType": "address",
                    "name": "",
                    "type": "address"
                }
            ],
            "stateMutability": "view",
            "type": "function",
            "constant": true
        },
        {
            "inputs": [],
            "name": "renounceOwnership",
            "outputs": [],
            "stateMutability": "nonpayable",
            "type": "function"
        },
        {
            "inputs": [],
            "name": "token",
            "outputs": [
                {
                    "internalType": "contract StableCoinToken",
                    "name": "",
                    "type": "address"
                }
            ],
            "stateMutability": "view",
            "type": "function",
            "constant": true
        },
        {
            "inputs": [
                {
                    "internalType": "address",
                    "name": "newOwner",
                    "type": "address"
                }
            ],
            "name": "transferOwnership",
            "outputs": [],
            "stateMutability": "nonpayable",
            "type": "function"
        },
        {
            "inputs": [
                {
                    "internalType": "uint256",
                    "name": "amountToDeposit",
                    "type": "uint256"
                }
            ],
            "name": "deposit",
            "outputs": [],
            "stateMutability": "payable",
            "type": "function",
            "payable": true
        },
        {
            "inputs": [
                {
                    "internalType": "uint256",
                    "name": "repaymentAmount",
                    "type": "uint256"
                }
            ],
            "name": "withdraw",
            "outputs": [],
            "stateMutability": "nonpayable",
            "type": "function"
        },
        {
            "inputs": [
                {
                    "internalType": "address",
                    "name": "userAddress",
                    "type": "address"
                }
            ],
            "name": "getVault",
            "outputs": [
                {
                    "components": [
                        {
                            "internalType": "uint256",
                            "name": "collateralAmount",
                            "type": "uint256"
                        },
                        {
                            "internalType": "uint256",
                            "name": "debtAmount",
                            "type": "uint256"
                        }
                    ],
                    "internalType": "struct IVault.Vault",
                    "name": "vault",
                    "type": "tuple"
                }
            ],
            "stateMutability": "view",
            "type": "function",
            "constant": true
        },
        {
            "inputs": [
                {
                    "internalType": "uint256",
                    "name": "repaymentAmount",
                    "type": "uint256"
                }
            ],
            "name": "estimateCollateralAmount",
            "outputs": [
                {
                    "internalType": "uint256",
                    "name": "collateralAmount",
                    "type": "uint256"
                }
            ],
            "stateMutability": "view",
            "type": "function",
            "constant": true
        },
        {
            "inputs": [
                {
                    "internalType": "uint256",
                    "name": "depositAmount",
                    "type": "uint256"
                }
            ],
            "name": "estimateTokenAmount",
            "outputs": [
                {
                    "internalType": "uint256",
                    "name": "tokenAmount",
                    "type": "uint256"
                }
            ],
            "stateMutability": "view",
            "type": "function",
            "constant": true
        },
        {
            "inputs": [],
            "name": "getEthUSDPrice",
            "outputs": [
                {
                    "internalType": "uint256",
                    "name": "",
                    "type": "uint256"
                }
            ],
            "stateMutability": "view",
            "type": "function",
            "constant": true
        },
        {
            "inputs": [],
            "name": "getToken",
            "outputs": [
                {
                    "internalType": "address",
                    "name": "",
                    "type": "address"
                }
            ],
            "stateMutability": "view",
            "type": "function",
            "constant": true
        },
        {
            "inputs": [
                {
                    "internalType": "address",
                    "name": "_oracle",
                    "type": "address"
                }
            ],
            "name": "setOracle",
            "outputs": [],
            "stateMutability": "nonpayable",
            "type": "function"
        },
        {
            "inputs": [],
            "name": "getOracle",
            "outputs": [
                {
                    "internalType": "address",
                    "name": "",
                    "type": "address"
                }
            ],
            "stateMutability": "view",
            "type": "function",
            "constant": true
        }
    ],
    "bytecode": "0x60806040526706f05b59d3b200006004553480156200001d57600080fd5b50604051620017043803806200170483398181016040528101906200004391906200027c565b6200006362000057620000ed60201b60201c565b620000f560201b60201c565b81600260006101000a81548173ffffffffffffffffffffffffffffffffffffffff021916908373ffffffffffffffffffffffffffffffffffffffff16021790555080600360006101000a81548173ffffffffffffffffffffffffffffffffffffffff021916908373ffffffffffffffffffffffffffffffffffffffff1602179055505050620002c3565b600033905090565b60008060009054906101000a900473ffffffffffffffffffffffffffffffffffffffff169050816000806101000a81548173ffffffffffffffffffffffffffffffffffffffff021916908373ffffffffffffffffffffffffffffffffffffffff1602179055508173ffffffffffffffffffffffffffffffffffffffff168173ffffffffffffffffffffffffffffffffffffffff167f8be0079c531659141344cd1fd0a4f28419497f9722a3daafe3b4186f6b6457e060405160405180910390a35050565b600080fd5b600073ffffffffffffffffffffffffffffffffffffffff82169050919050565b6000620001eb82620001be565b9050919050565b6000620001ff82620001de565b9050919050565b6200021181620001f2565b81146200021d57600080fd5b50565b600081519050620002318162000206565b92915050565b60006200024482620001de565b9050919050565b620002568162000237565b81146200026257600080fd5b50565b60008151905062000276816200024b565b92915050565b60008060408385031215620002965762000295620001b9565b5b6000620002a68582860162000220565b9250506020620002b98582860162000265565b9150509250929050565b61143180620002d36000396000f3fe6080604052600436106100dd5760003560e01c8063833b1fce1161007f578063bac5dd3e11610059578063bac5dd3e1461029f578063d84549d7146102ca578063f2fde38b146102f5578063fc0c546a1461031e576100dd565b8063833b1fce1461022d5780638da5cb5b14610258578063b6b55f2514610283576100dd565b80632e1a7d4d116100bb5780632e1a7d4d1461018757806356bfdaf5146101b0578063715018a6146101ed5780637adbf97314610204576100dd565b80630eb9af38146100e25780631b05ab791461011f57806321df0da71461015c575b600080fd5b3480156100ee57600080fd5b5061010960048036038101906101049190610d5c565b610349565b6040516101169190610dd1565b60405180910390f35b34801561012b57600080fd5b5061014660048036038101906101419190610e18565b6103b6565b6040516101539190610e54565b60405180910390f35b34801561016857600080fd5b506101716103df565b60405161017e9190610e7e565b60405180910390f35b34801561019357600080fd5b506101ae60048036038101906101a99190610e18565b610409565b005b3480156101bc57600080fd5b506101d760048036038101906101d29190610e18565b610767565b6040516101e49190610e54565b60405180910390f35b3480156101f957600080fd5b50610202610790565b005b34801561021057600080fd5b5061022b60048036038101906102269190610d5c565b6107a4565b005b34801561023957600080fd5b506102426107f0565b60405161024f9190610e7e565b60405180910390f35b34801561026457600080fd5b5061026d61081a565b60405161027a9190610e7e565b60405180910390f35b61029d60048036038101906102989190610e18565b610843565b005b3480156102ab57600080fd5b506102b4610a39565b6040516102c19190610e54565b60405180910390f35b3480156102d657600080fd5b506102df610a3f565b6040516102ec9190610e54565b60405180910390f35b34801561030157600080fd5b5061031c60048036038101906103179190610d5c565b610aec565b005b34801561032a57600080fd5b50610333610b6f565b6040516103409190610ef8565b60405180910390f35b610351610cdf565b600160008373ffffffffffffffffffffffffffffffffffffffff1673ffffffffffffffffffffffffffffffffffffffff168152602001908152602001600020604051806040016040529081600082015481526020016001820154815250509050919050565b60006004546103c3610a3f565b836103ce9190610f42565b6103d89190610f42565b9050919050565b6000600260009054906101000a900473ffffffffffffffffffffffffffffffffffffffff16905090565b600160003373ffffffffffffffffffffffffffffffffffffffff1673ffffffffffffffffffffffffffffffffffffffff1681526020019081526020016000206001015481111561048e576040517f08c379a000000000000000000000000000000000000000000000000000000000815260040161048590610fe1565b60405180910390fd5b80600260009054906101000a900473ffffffffffffffffffffffffffffffffffffffff1673ffffffffffffffffffffffffffffffffffffffff166370a08231336040518263ffffffff1660e01b81526004016104ea9190610e7e565b602060405180830381865afa158015610507573d6000803e3d6000fd5b505050506040513d601f19601f8201168201806040525081019061052b9190611016565b101561056c576040517f08c379a00000000000000000000000000000000000000000000000000000000081526004016105639061108f565b60405180910390fd5b6000600454610579610a3f565b8361058491906110de565b61058e91906110de565b9050600260009054906101000a900473ffffffffffffffffffffffffffffffffffffffff1673ffffffffffffffffffffffffffffffffffffffff16639dc29fac33846040518363ffffffff1660e01b81526004016105ed92919061110f565b6020604051808303816000875af115801561060c573d6000803e3d6000fd5b505050506040513d601f19601f820116820180604052508101906106309190611170565b5080600160003373ffffffffffffffffffffffffffffffffffffffff1673ffffffffffffffffffffffffffffffffffffffff1681526020019081526020016000206000016000828254610683919061119d565b9250508190555081600160003373ffffffffffffffffffffffffffffffffffffffff1673ffffffffffffffffffffffffffffffffffffffff16815260200190815260200160002060010160008282546106dc919061119d565b925050819055503373ffffffffffffffffffffffffffffffffffffffff166108fc829081150290604051600060405180830381858888f19350505050158015610729573d6000803e3d6000fd5b507f56ca301a9219608c91e7bcee90e083c19671d2cdcc96752c7af291cee5f9c8c8818360405161075b9291906111d1565b60405180910390a15050565b6000600454610774610a3f565b8361077f91906110de565b61078991906110de565b9050919050565b610798610b95565b6107a26000610c13565b565b6107ac610b95565b80600360006101000a81548173ffffffffffffffffffffffffffffffffffffffff021916908373ffffffffffffffffffffffffffffffffffffffff16021790555050565b6000600360009054906101000a900473ffffffffffffffffffffffffffffffffffffffff16905090565b60008060009054906101000a900473ffffffffffffffffffffffffffffffffffffffff16905090565b348114610885576040517f08c379a000000000000000000000000000000000000000000000000000000000815260040161087c90611246565b60405180910390fd5b6000600454610892610a3f565b8361089d9190610f42565b6108a79190610f42565b9050600260009054906101000a900473ffffffffffffffffffffffffffffffffffffffff1673ffffffffffffffffffffffffffffffffffffffff166340c10f1933836040518363ffffffff1660e01b815260040161090692919061110f565b6020604051808303816000875af1158015610925573d6000803e3d6000fd5b505050506040513d601f19601f820116820180604052508101906109499190611170565b5081600160003373ffffffffffffffffffffffffffffffffffffffff1673ffffffffffffffffffffffffffffffffffffffff168152602001908152602001600020600001600082825461099c9190611266565b9250508190555080600160003373ffffffffffffffffffffffffffffffffffffffff1673ffffffffffffffffffffffffffffffffffffffff16815260200190815260200160002060010160008282546109f59190611266565b925050819055507fa3af609bf46297028ce551832669030f9effef2b02606d02cbbcc40fe6b47c558282604051610a2d9291906111d1565b60405180910390a15050565b60045481565b600080600360009054906101000a900473ffffffffffffffffffffffffffffffffffffffff1673ffffffffffffffffffffffffffffffffffffffff16638e15f4736040518163ffffffff1660e01b8152600401602060405180830381865afa158015610aaf573d6000803e3d6000fd5b505050506040513d601f19601f82011682018060405250810190610ad391906112d0565b90506402540be40081610ae69190610f42565b91505090565b610af4610b95565b600073ffffffffffffffffffffffffffffffffffffffff168173ffffffffffffffffffffffffffffffffffffffff1603610b63576040517f08c379a0000000000000000000000000000000000000000000000000000000008152600401610b5a9061136f565b60405180910390fd5b610b6c81610c13565b50565b600260009054906101000a900473ffffffffffffffffffffffffffffffffffffffff1681565b610b9d610cd7565b73ffffffffffffffffffffffffffffffffffffffff16610bbb61081a565b73ffffffffffffffffffffffffffffffffffffffff1614610c11576040517f08c379a0000000000000000000000000000000000000000000000000000000008152600401610c08906113db565b60405180910390fd5b565b60008060009054906101000a900473ffffffffffffffffffffffffffffffffffffffff169050816000806101000a81548173ffffffffffffffffffffffffffffffffffffffff021916908373ffffffffffffffffffffffffffffffffffffffff1602179055508173ffffffffffffffffffffffffffffffffffffffff168173ffffffffffffffffffffffffffffffffffffffff167f8be0079c531659141344cd1fd0a4f28419497f9722a3daafe3b4186f6b6457e060405160405180910390a35050565b600033905090565b604051806040016040528060008152602001600081525090565b600080fd5b600073ffffffffffffffffffffffffffffffffffffffff82169050919050565b6000610d2982610cfe565b9050919050565b610d3981610d1e565b8114610d4457600080fd5b50565b600081359050610d5681610d30565b92915050565b600060208284031215610d7257610d71610cf9565b5b6000610d8084828501610d47565b91505092915050565b6000819050919050565b610d9c81610d89565b82525050565b604082016000820151610db86000850182610d93565b506020820151610dcb6020850182610d93565b50505050565b6000604082019050610de66000830184610da2565b92915050565b610df581610d89565b8114610e0057600080fd5b50565b600081359050610e1281610dec565b92915050565b600060208284031215610e2e57610e2d610cf9565b5b6000610e3c84828501610e03565b91505092915050565b610e4e81610d89565b82525050565b6000602082019050610e696000830184610e45565b92915050565b610e7881610d1e565b82525050565b6000602082019050610e936000830184610e6f565b92915050565b6000819050919050565b6000610ebe610eb9610eb484610cfe565b610e99565b610cfe565b9050919050565b6000610ed082610ea3565b9050919050565b6000610ee282610ec5565b9050919050565b610ef281610ed7565b82525050565b6000602082019050610f0d6000830184610ee9565b92915050565b7f4e487b7100000000000000000000000000000000000000000000000000000000600052601160045260246000fd5b6000610f4d82610d89565b9150610f5883610d89565b9250828202610f6681610d89565b91508282048414831517610f7d57610f7c610f13565b5b5092915050565b600082825260208201905092915050565b7f7769746864726177206c696d6974206578636565646564000000000000000000600082015250565b6000610fcb601783610f84565b9150610fd682610f95565b602082019050919050565b60006020820190508181036000830152610ffa81610fbe565b9050919050565b60008151905061101081610dec565b92915050565b60006020828403121561102c5761102b610cf9565b5b600061103a84828501611001565b91505092915050565b7f6e6f7420656e6f75676820746f6b656e7320696e2062616c616e636500000000600082015250565b6000611079601c83610f84565b915061108482611043565b602082019050919050565b600060208201905081810360008301526110a88161106c565b9050919050565b7f4e487b7100000000000000000000000000000000000000000000000000000000600052601260045260246000fd5b60006110e982610d89565b91506110f483610d89565b925082611104576111036110af565b5b828204905092915050565b60006040820190506111246000830185610e6f565b6111316020830184610e45565b9392505050565b60008115159050919050565b61114d81611138565b811461115857600080fd5b50565b60008151905061116a81611144565b92915050565b60006020828403121561118657611185610cf9565b5b60006111948482850161115b565b91505092915050565b60006111a882610d89565b91506111b383610d89565b92508282039050818111156111cb576111ca610f13565b5b92915050565b60006040820190506111e66000830185610e45565b6111f36020830184610e45565b9392505050565b7f696e636f72726563742045544820616d6f756e74000000000000000000000000600082015250565b6000611230601483610f84565b915061123b826111fa565b602082019050919050565b6000602082019050818103600083015261125f81611223565b9050919050565b600061127182610d89565b915061127c83610d89565b925082820190508082111561129457611293610f13565b5b92915050565b6000819050919050565b6112ad8161129a565b81146112b857600080fd5b50565b6000815190506112ca816112a4565b92915050565b6000602082840312156112e6576112e5610cf9565b5b60006112f4848285016112bb565b91505092915050565b7f4f776e61626c653a206e6577206f776e657220697320746865207a65726f206160008201527f6464726573730000000000000000000000000000000000000000000000000000602082015250565b6000611359602683610f84565b9150611364826112fd565b604082019050919050565b600060208201905081810360008301526113888161134c565b9050919050565b7f4f776e61626c653a2063616c6c6572206973206e6f7420746865206f776e6572600082015250565b60006113c5602083610f84565b91506113d08261138f565b602082019050919050565b600060208201905081810360008301526113f4816113b8565b905091905056fea264697066735822122036e0aec2aa2d477bffe90eafdd71c940a4830b43070d11df38d8f07a27f660c364736f6c63430008110033",
    "immutableReferences": {},
    "source": "// SPDX-License-Identifier: MIT\npragma solidity ^0.8.0;\n\nimport \"../interfaces/IVault.sol\";\nimport \"./Coin.sol\";\nimport \"./PriceConsumerV3.sol\";\nimport \"./MockOracle.sol\";\nimport \"@openzeppelin/contracts/access/Ownable.sol\";\n// import \"@openzeppelin/contracts/utils/math/SafeMath.sol\";\n\ncontract Vault is IVault, Ownable {\n\n    mapping (address => Vault) vaults;\n    StableCoinToken public token;\n    PriceConsumerV3 private oracle;\n    uint256 public collaterization_ratio = 5e17;\n    // collaterization 50%\n    // using SafeMath for uint256;\n\n    constructor(StableCoinToken _token, PriceConsumerV3 _oracle){\n        token = _token;\n        oracle = _oracle;\n    }\n\n    /**\n    @notice Allows a user to deposit ETH collateral in exchange for some amount of stablecoin\n    @param amountToDeposit  The amount of ether the user sent in the transaction\n     */\n    function deposit(uint256 amountToDeposit) override payable external {\n        require(amountToDeposit == msg.value, \"incorrect ETH amount\");\n        uint256 amountToMint = amountToDeposit * getEthUSDPrice() * collaterization_ratio;\n        token.mint(msg.sender, amountToMint);\n        vaults[msg.sender].collateralAmount += amountToDeposit;\n        vaults[msg.sender].debtAmount += amountToMint;\n        emit Deposit(amountToDeposit, amountToMint);\n    }\n    \n    /**\n    @notice Allows a user to withdraw up to 100% of the collateral they have on deposit\n    @dev This cannot allow a user to withdraw more than they put in\n    @param repaymentAmount  the amount of stablecoin that a user (or yearn APY) is repaying to redeem their collateral for.\n     */\n    function withdraw(uint256 repaymentAmount) override external {\n        require(repaymentAmount <= vaults[msg.sender].debtAmount, \"withdraw limit exceeded\"); \n        require(token.balanceOf(msg.sender) >= repaymentAmount, \"not enough tokens in balance\");\n        uint256 amountToWithdraw = repaymentAmount / getEthUSDPrice() / collaterization_ratio;\n        token.burn(msg.sender, repaymentAmount);\n        vaults[msg.sender].collateralAmount -= amountToWithdraw;\n        vaults[msg.sender].debtAmount -= repaymentAmount;\n        payable(msg.sender).transfer(amountToWithdraw);\n        emit Withdraw(amountToWithdraw, repaymentAmount);\n    }\n    \n    /**\n    @notice Returns the details of a vault\n    @param userAddress  the address of the vault owner\n    @return vault  the vault details\n     */\n    function getVault(address userAddress) external view override returns(Vault memory vault) {\n        return vaults[userAddress];\n    }\n    \n    /**\n    @notice Returns an estimate of how much collateral could be withdrawn for a given amount of stablecoin\n    @param repaymentAmount  the amount of stable coin that would be repaid\n    @return collateralAmount the estimated amount of a vault's collateral that would be returned \n     */\n    function estimateCollateralAmount(uint256 repaymentAmount) external view override  returns(uint256 collateralAmount) {\n        return repaymentAmount / getEthUSDPrice() / collaterization_ratio;\n    }\n    \n    /**\n    @notice Returns an estimate on how much stable coin could be minted at the current rate\n    @param depositAmount the amount of ETH that would be deposited\n    @return tokenAmount  the estimated amount of stablecoin that would be minted\n     */\n    function estimateTokenAmount(uint256 depositAmount) external view override returns(uint256 tokenAmount) {\n        return depositAmount * getEthUSDPrice() * collaterization_ratio;\n    }\n\n    function getEthUSDPrice() public view returns (uint256){\n        uint price8 = uint(oracle.getLatestPrice());\n        return price8*(10**10);\n    }\n\n    function getToken() external view returns (address){\n        return address(token);\n    }\n\n    function setOracle(address _oracle) public onlyOwner {\n        oracle = PriceConsumerV3(_oracle);\n    }\n\n    function getOracle() public view returns (address) {\n        return address(oracle);\n    }\n}\n",
    "sourcePath": "/Users/test./codes/coy-project/lendexr/contracts/implementations/Vault.sol",
    "compiler": {
        "name": "solc",
        "version": "0.8.17+commit.8df45f5f.Emscripten.clang"
    },
    "schemaVersion": "3.4.4",
    "updatedAt": "2022-12-01T14:28:23.984Z",
    "networkType": "ethereum",
    "devdoc": {
        "kind": "dev",
        "methods": {
            "deposit(uint256)": {
                "params": {
                    "amountToDeposit": "The amount of ether the user sent in the transaction"
                }
            },
            "estimateCollateralAmount(uint256)": {
                "params": {
                    "repaymentAmount": "the amount of stable coin that would be repaid"
                },
                "returns": {
                    "collateralAmount": "the estimated amount of a vault's collateral that would be returned "
                }
            },
            "estimateTokenAmount(uint256)": {
                "params": {
                    "depositAmount": "the amount of ETH that would be deposited"
                },
                "returns": {
                    "tokenAmount": " the estimated amount of stablecoin that would be minted"
                }
            },
            "getVault(address)": {
                "params": {
                    "userAddress": "the address of the vault owner"
                },
                "returns": {
                    "vault": " the vault details"
                }
            },
            "owner()": {
                "details": "Returns the address of the current owner."
            },
            "renounceOwnership()": {
                "details": "Leaves the contract without owner. It will not be possible to call `onlyOwner` functions anymore. Can only be called by the current owner. NOTE: Renouncing ownership will leave the contract without an owner, thereby removing any functionality that is only available to the owner."
            },
            "transferOwnership(address)": {
                "details": "Transfers ownership of the contract to a new account (`newOwner`). Can only be called by the current owner."
            },
            "withdraw(uint256)": {
                "details": "This cannot allow a user to withdraw more than they put in",
                "params": {
                    "repaymentAmount": "the amount of stablecoin that a user (or yearn APY) is repaying to redeem their collateral for."
                }
            }
        },
        "version": 1
    },
    "userdoc": {
        "kind": "user",
        "methods": {
            "deposit(uint256)": {
                "notice": "Allows a user to deposit ETH collateral in exchange for some amount of stablecoin"
            },
            "estimateCollateralAmount(uint256)": {
                "notice": "Returns an estimate of how much collateral could be withdrawn for a given amount of stablecoin"
            },
            "estimateTokenAmount(uint256)": {
                "notice": "Returns an estimate on how much stable coin could be minted at the current rate"
            },
            "getVault(address)": {
                "notice": "Returns the details of a vault"
            },
            "withdraw(uint256)": {
                "notice": "Allows a user to withdraw up to 100% of the collateral they have on deposit"
            }
        },
        "version": 1
    }
}